{
  "contractName": "CryptoCookieMonsters",
  "abi": [
    {
      "constant": true,
      "inputs": [],
      "name": "counter",
      "outputs": [
        {
          "name": "",
          "type": "uint256"
        }
      ],
      "payable": false,
      "stateMutability": "view",
      "type": "function"
    },
    {
      "constant": true,
      "inputs": [],
      "name": "owner",
      "outputs": [
        {
          "name": "",
          "type": "address"
        }
      ],
      "payable": false,
      "stateMutability": "view",
      "type": "function"
    },
    {
      "constant": true,
      "inputs": [
        {
          "name": "",
          "type": "uint256"
        }
      ],
      "name": "monsters",
      "outputs": [
        {
          "name": "name",
          "type": "string"
        },
        {
          "name": "id",
          "type": "uint256"
        },
        {
          "name": "level",
          "type": "uint16"
        }
      ],
      "payable": false,
      "stateMutability": "view",
      "type": "function"
    },
    {
      "inputs": [],
      "payable": false,
      "stateMutability": "nonpayable",
      "type": "constructor"
    },
    {
      "constant": false,
      "inputs": [],
      "name": "createCookieMonster",
      "outputs": [],
      "payable": false,
      "stateMutability": "nonpayable",
      "type": "function"
    }
  ],
  "bytecode": "0x6080604052600060015534801561001557600080fd5b50336000806101000a81548173ffffffffffffffffffffffffffffffffffffffff021916908373ffffffffffffffffffffffffffffffffffffffff1602179055506104ab806100656000396000f300608060405260043610610062576000357c0100000000000000000000000000000000000000000000000000000000900463ffffffff168063303bf4211461006757806361bc221a1461007e5780638da5cb5b146100a9578063c0576b7314610100575b600080fd5b34801561007357600080fd5b5061007c6101bc565b005b34801561008a57600080fd5b506100936102aa565b6040518082815260200191505060405180910390f35b3480156100b557600080fd5b506100be6102b0565b604051808273ffffffffffffffffffffffffffffffffffffffff1673ffffffffffffffffffffffffffffffffffffffff16815260200191505060405180910390f35b34801561010c57600080fd5b5061012b600480360381019080803590602001909291905050506102d5565b60405180806020018481526020018361ffff1661ffff168152602001828103825285818151815260200191508051906020019080838360005b8381101561017f578082015181840152602081019050610164565b50505050905090810190601f1680156101ac5780820380516001836020036101000a031916815260200191505b5094505050505060405180910390f35b6101c46103b4565b6060604051908101604052806040805190810160405280600c81526020017f54657374204d6f6e737465720000000000000000000000000000000000000000815250815260200160016000815480929190600101919050558152602001600161ffff1681525090506002819080600181540180825580915050906001820390600052602060002090600302016000909192909190915060008201518160000190805190602001906102769291906103da565b506020820151816001015560408201518160020160006101000a81548161ffff021916908361ffff16021790555050505050565b60015481565b6000809054906101000a900473ffffffffffffffffffffffffffffffffffffffff1681565b6002818154811015156102e457fe5b9060005260206000209060030201600091509050806000018054600181600116156101000203166002900480601f0160208091040260200160405190810160405280929190818152602001828054600181600116156101000203166002900480156103905780601f1061036557610100808354040283529160200191610390565b820191906000526020600020905b81548152906001019060200180831161037357829003601f168201915b5050505050908060010154908060020160009054906101000a900461ffff16905083565b6060604051908101604052806060815260200160008152602001600061ffff1681525090565b828054600181600116156101000203166002900490600052602060002090601f016020900481019282601f1061041b57805160ff1916838001178555610449565b82800160010185558215610449579182015b8281111561044857825182559160200191906001019061042d565b5b509050610456919061045a565b5090565b61047c91905b80821115610478576000816000905550600101610460565b5090565b905600a165627a7a72305820287849f6d247d7a074ffe628f33757213a36739c75cf407f5aa1a5c51637147d0029",
  "source": "pragma solidity ^0.4.24;\n\ncontract CryptoCookieMonsters {\n\n\taddress public owner;\n\tuint256 public counter = 0;\n\tCookieMonster[] public monsters;\n\n\tstruct CookieMonster {\n\t\tstring name;\n\t\tuint256 id;\n\t\tuint16 level;\n\t}\n\n\tconstructor() public {\n\t\towner = msg.sender;\n\t}\n\n\tfunction createCookieMonster() external {\n\t\tCookieMonster memory newMonster = CookieMonster(\"Test Monster\", counter++, 1);\n\t\tmonsters.push(newMonster);\n\t}\n\n}",
  "sourcePath": "/home/flashy/Git Repos/SolProject/contracts/CryptoCookieMonsters.sol",
  "compiler": {
    "name": "solc",
    "version": "0.4.24+commit.e67f0147.Emscripten.clang"
  },
  "schemaVersion": "2.0.1",
  "updatedAt": "2018-09-18T20:04:19.693Z"
}