{
  "contractName": "CryptoCookieMonsters",
  "abi": [
    {
      "constant": true,
      "inputs": [],
      "name": "owner",
      "outputs": [
        {
          "name": "",
          "type": "address"
        }
      ],
      "payable": false,
      "stateMutability": "view",
      "type": "function"
    },
    {
      "constant": true,
      "inputs": [
        {
          "name": "",
          "type": "uint256"
        }
      ],
      "name": "monsters",
      "outputs": [
        {
          "name": "name",
          "type": "string"
        },
        {
          "name": "id",
          "type": "uint256"
        },
        {
          "name": "level",
          "type": "uint16"
        }
      ],
      "payable": false,
      "stateMutability": "view",
      "type": "function"
    },
    {
      "inputs": [],
      "payable": false,
      "stateMutability": "nonpayable",
      "type": "constructor"
    },
    {
      "constant": false,
      "inputs": [],
      "name": "createCookieMonster",
      "outputs": [],
      "payable": false,
      "stateMutability": "nonpayable",
      "type": "function"
    }
  ],
  "bytecode": "0x6080604052600060015534801561001557600080fd5b50336000806101000a81548173ffffffffffffffffffffffffffffffffffffffff021916908373ffffffffffffffffffffffffffffffffffffffff16021790555061046f806100656000396000f300608060405260043610610057576000357c0100000000000000000000000000000000000000000000000000000000900463ffffffff168063303bf4211461005c5780638da5cb5b14610073578063c0576b73146100ca575b600080fd5b34801561006857600080fd5b50610071610186565b005b34801561007f57600080fd5b50610088610274565b604051808273ffffffffffffffffffffffffffffffffffffffff1673ffffffffffffffffffffffffffffffffffffffff16815260200191505060405180910390f35b3480156100d657600080fd5b506100f560048036038101908080359060200190929190505050610299565b60405180806020018481526020018361ffff1661ffff168152602001828103825285818151815260200191508051906020019080838360005b8381101561014957808201518184015260208101905061012e565b50505050905090810190601f1680156101765780820380516001836020036101000a031916815260200191505b5094505050505060405180910390f35b61018e610378565b6060604051908101604052806040805190810160405280600c81526020017f54657374204d6f6e737465720000000000000000000000000000000000000000815250815260200160016000815480929190600101919050558152602001600161ffff16815250905060028190806001815401808255809150509060018203906000526020600020906003020160009091929091909150600082015181600001908051906020019061024092919061039e565b506020820151816001015560408201518160020160006101000a81548161ffff021916908361ffff16021790555050505050565b6000809054906101000a900473ffffffffffffffffffffffffffffffffffffffff1681565b6002818154811015156102a857fe5b9060005260206000209060030201600091509050806000018054600181600116156101000203166002900480601f0160208091040260200160405190810160405280929190818152602001828054600181600116156101000203166002900480156103545780601f1061032957610100808354040283529160200191610354565b820191906000526020600020905b81548152906001019060200180831161033757829003601f168201915b5050505050908060010154908060020160009054906101000a900461ffff16905083565b6060604051908101604052806060815260200160008152602001600061ffff1681525090565b828054600181600116156101000203166002900490600052602060002090601f016020900481019282601f106103df57805160ff191683800117855561040d565b8280016001018555821561040d579182015b8281111561040c5782518255916020019190600101906103f1565b5b50905061041a919061041e565b5090565b61044091905b8082111561043c576000816000905550600101610424565b5090565b905600a165627a7a72305820128b2aa83d45acabaeb42815eebee96e3062a48d8a795184fb32d1d2b677b2700029",
  "source": "pragma solidity ^0.4.24;\n\ncontract CryptoCookieMonsters {\n\n    address public owner;\n\tuint256 counter = 0;\n\tCookieMonster[] public monsters;\n\n    struct CookieMonster {\n        string name;\n        uint256 id;\n        uint16 level;\n    }\n\n    constructor() {\n        owner = msg.sender;\n    }\n\n    function createCookieMonster() external {\n\t\tCookieMonster memory newMonster = CookieMonster(\"Test Monster\", counter++, 1);\n\t\tmonsters.push(newMonster);\n\t}\n\n}",
  "sourcePath": "/home/flashy/Git Repos/SolProject/contracts/CryptoCookieMonsters.sol",
  "compiler": {
    "name": "solc",
    "version": "0.4.24+commit.e67f0147.Emscripten.clang"
  },
  "schemaVersion": "2.0.1",
  "updatedAt": "2018-09-18T19:07:27.177Z"
}